{
  "_format": "hh-sol-artifact-1",
  "contractName": "Proxy",
  "sourceName": "contracts/proxy.sol",
  "abi": [
    {
      "inputs": [
        {
          "internalType": "address",
          "name": "_implementation",
          "type": "address"
        }
      ],
      "stateMutability": "nonpayable",
      "type": "constructor"
    },
    {
      "stateMutability": "payable",
      "type": "fallback"
    },
    {
      "inputs": [],
      "name": "implementation",
      "outputs": [
        {
          "internalType": "address",
          "name": "",
          "type": "address"
        }
      ],
      "stateMutability": "view",
      "type": "function"
    },
    {
      "inputs": [
        {
          "internalType": "address",
          "name": "_newImplementation",
          "type": "address"
        }
      ],
      "name": "upgrade",
      "outputs": [],
      "stateMutability": "nonpayable",
      "type": "function"
    },
    {
      "stateMutability": "payable",
      "type": "receive"
    }
  ],
  "bytecode": "0x608060405234801561001057600080fd5b50604051610441380380610441833981810160405281019061003291906100db565b806000806101000a81548173ffffffffffffffffffffffffffffffffffffffff021916908373ffffffffffffffffffffffffffffffffffffffff16021790555050610108565b600080fd5b600073ffffffffffffffffffffffffffffffffffffffff82169050919050565b60006100a88261007d565b9050919050565b6100b88161009d565b81146100c357600080fd5b50565b6000815190506100d5816100af565b92915050565b6000602082840312156100f1576100f0610078565b5b60006100ff848285016100c6565b91505092915050565b61032a806101176000396000f3fe60806040526004361061002d5760003560e01c80630900f010146100465780635c60da1b1461006f5761003c565b3661003c5761003a61009a565b005b61004461009a565b005b34801561005257600080fd5b5061006d60048036038101906100689190610220565b610156565b005b34801561007b57600080fd5b50610084610199565b604051610091919061025c565b60405180910390f35b60008060009054906101000a900473ffffffffffffffffffffffffffffffffffffffff169050600073ffffffffffffffffffffffffffffffffffffffff168173ffffffffffffffffffffffffffffffffffffffff160361012f576040517f08c379a0000000000000000000000000000000000000000000000000000000008152600401610126906102d4565b60405180910390fd5b60405136600082376000803683855af43d806000843e8160008114610152578184f35b8184fd5b806000806101000a81548173ffffffffffffffffffffffffffffffffffffffff021916908373ffffffffffffffffffffffffffffffffffffffff16021790555050565b60008054906101000a900473ffffffffffffffffffffffffffffffffffffffff1681565b600080fd5b600073ffffffffffffffffffffffffffffffffffffffff82169050919050565b60006101ed826101c2565b9050919050565b6101fd816101e2565b811461020857600080fd5b50565b60008135905061021a816101f4565b92915050565b600060208284031215610236576102356101bd565b5b60006102448482850161020b565b91505092915050565b610256816101e2565b82525050565b6000602082019050610271600083018461024d565b92915050565b600082825260208201905092915050565b7f496d706c656d656e746174696f6e2061646472657373206e6f74207365740000600082015250565b60006102be601e83610277565b91506102c982610288565b602082019050919050565b600060208201905081810360008301526102ed816102b1565b905091905056fea2646970667358221220c4840a5ca9274c69c99e535298630ddfb5e1ba30caa85795fe03a4962f13006f64736f6c63430008140033",
  "linkReferences": {},
  "deployedLinkReferences": {}
}