{
  "_format": "hh-sol-artifact-1",
  "contractName": "ContractB",
  "sourceName": "contracts/contractB.sol",
  "abi": [
    {
      "inputs": [],
      "name": "AccessControlBadConfirmation",
      "type": "error"
    },
    {
      "inputs": [
        {
          "internalType": "address",
          "name": "account",
          "type": "address"
        },
        {
          "internalType": "bytes32",
          "name": "neededRole",
          "type": "bytes32"
        }
      ],
      "name": "AccessControlUnauthorizedAccount",
      "type": "error"
    },
    {
      "inputs": [],
      "name": "InvalidInitialization",
      "type": "error"
    },
    {
      "inputs": [],
      "name": "NotInitializing",
      "type": "error"
    },
    {
      "anonymous": false,
      "inputs": [
        {
          "indexed": true,
          "internalType": "address",
          "name": "newAdmin",
          "type": "address"
        }
      ],
      "name": "AdminAdded",
      "type": "event"
    },
    {
      "anonymous": false,
      "inputs": [
        {
          "indexed": true,
          "internalType": "address",
          "name": "admin",
          "type": "address"
        }
      ],
      "name": "AdminRemoved",
      "type": "event"
    },
    {
      "anonymous": false,
      "inputs": [
        {
          "indexed": true,
          "internalType": "address",
          "name": "oldAdmin",
          "type": "address"
        },
        {
          "indexed": true,
          "internalType": "address",
          "name": "newAdmin",
          "type": "address"
        }
      ],
      "name": "AdminRoleTransferred",
      "type": "event"
    },
    {
      "anonymous": false,
      "inputs": [
        {
          "indexed": false,
          "internalType": "uint64",
          "name": "version",
          "type": "uint64"
        }
      ],
      "name": "Initialized",
      "type": "event"
    },
    {
      "anonymous": false,
      "inputs": [
        {
          "indexed": true,
          "internalType": "bytes32",
          "name": "role",
          "type": "bytes32"
        },
        {
          "indexed": true,
          "internalType": "bytes32",
          "name": "previousAdminRole",
          "type": "bytes32"
        },
        {
          "indexed": true,
          "internalType": "bytes32",
          "name": "newAdminRole",
          "type": "bytes32"
        }
      ],
      "name": "RoleAdminChanged",
      "type": "event"
    },
    {
      "anonymous": false,
      "inputs": [
        {
          "indexed": true,
          "internalType": "bytes32",
          "name": "role",
          "type": "bytes32"
        },
        {
          "indexed": true,
          "internalType": "address",
          "name": "account",
          "type": "address"
        },
        {
          "indexed": true,
          "internalType": "address",
          "name": "sender",
          "type": "address"
        }
      ],
      "name": "RoleGranted",
      "type": "event"
    },
    {
      "anonymous": false,
      "inputs": [
        {
          "indexed": true,
          "internalType": "bytes32",
          "name": "role",
          "type": "bytes32"
        },
        {
          "indexed": true,
          "internalType": "address",
          "name": "account",
          "type": "address"
        },
        {
          "indexed": true,
          "internalType": "address",
          "name": "sender",
          "type": "address"
        }
      ],
      "name": "RoleRevoked",
      "type": "event"
    },
    {
      "inputs": [],
      "name": "ADMIN_ROLE",
      "outputs": [
        {
          "internalType": "bytes32",
          "name": "",
          "type": "bytes32"
        }
      ],
      "stateMutability": "view",
      "type": "function"
    },
    {
      "inputs": [],
      "name": "DEFAULT_ADMIN_ROLE",
      "outputs": [
        {
          "internalType": "bytes32",
          "name": "",
          "type": "bytes32"
        }
      ],
      "stateMutability": "view",
      "type": "function"
    },
    {
      "inputs": [],
      "name": "SUPER_ADMIN_ROLE",
      "outputs": [
        {
          "internalType": "bytes32",
          "name": "",
          "type": "bytes32"
        }
      ],
      "stateMutability": "view",
      "type": "function"
    },
    {
      "inputs": [
        {
          "internalType": "address",
          "name": "signer",
          "type": "address"
        },
        {
          "internalType": "address",
          "name": "newAdmin",
          "type": "address"
        }
      ],
      "name": "addAdmin",
      "outputs": [],
      "stateMutability": "nonpayable",
      "type": "function"
    },
    {
      "inputs": [],
      "name": "getAdmins",
      "outputs": [
        {
          "internalType": "address[]",
          "name": "",
          "type": "address[]"
        }
      ],
      "stateMutability": "view",
      "type": "function"
    },
    {
      "inputs": [
        {
          "internalType": "bytes32",
          "name": "role",
          "type": "bytes32"
        }
      ],
      "name": "getRoleAdmin",
      "outputs": [
        {
          "internalType": "bytes32",
          "name": "",
          "type": "bytes32"
        }
      ],
      "stateMutability": "view",
      "type": "function"
    },
    {
      "inputs": [
        {
          "internalType": "bytes32",
          "name": "role",
          "type": "bytes32"
        },
        {
          "internalType": "uint256",
          "name": "index",
          "type": "uint256"
        }
      ],
      "name": "getRoleMember",
      "outputs": [
        {
          "internalType": "address",
          "name": "",
          "type": "address"
        }
      ],
      "stateMutability": "view",
      "type": "function"
    },
    {
      "inputs": [
        {
          "internalType": "bytes32",
          "name": "role",
          "type": "bytes32"
        }
      ],
      "name": "getRoleMemberCount",
      "outputs": [
        {
          "internalType": "uint256",
          "name": "",
          "type": "uint256"
        }
      ],
      "stateMutability": "view",
      "type": "function"
    },
    {
      "inputs": [
        {
          "internalType": "bytes32",
          "name": "role",
          "type": "bytes32"
        },
        {
          "internalType": "address",
          "name": "account",
          "type": "address"
        }
      ],
      "name": "grantRole",
      "outputs": [],
      "stateMutability": "nonpayable",
      "type": "function"
    },
    {
      "inputs": [
        {
          "internalType": "bytes32",
          "name": "role",
          "type": "bytes32"
        },
        {
          "internalType": "address",
          "name": "account",
          "type": "address"
        }
      ],
      "name": "hasRole",
      "outputs": [
        {
          "internalType": "bool",
          "name": "",
          "type": "bool"
        }
      ],
      "stateMutability": "view",
      "type": "function"
    },
    {
      "inputs": [
        {
          "internalType": "address",
          "name": "superAdmin",
          "type": "address"
        }
      ],
      "name": "initialize",
      "outputs": [],
      "stateMutability": "nonpayable",
      "type": "function"
    },
    {
      "inputs": [
        {
          "internalType": "address",
          "name": "signer",
          "type": "address"
        },
        {
          "internalType": "address",
          "name": "admin",
          "type": "address"
        }
      ],
      "name": "removeAdmin",
      "outputs": [],
      "stateMutability": "nonpayable",
      "type": "function"
    },
    {
      "inputs": [
        {
          "internalType": "address",
          "name": "signer",
          "type": "address"
        }
      ],
      "name": "renounceAdminRole",
      "outputs": [],
      "stateMutability": "nonpayable",
      "type": "function"
    },
    {
      "inputs": [
        {
          "internalType": "bytes32",
          "name": "role",
          "type": "bytes32"
        },
        {
          "internalType": "address",
          "name": "callerConfirmation",
          "type": "address"
        }
      ],
      "name": "renounceRole",
      "outputs": [],
      "stateMutability": "nonpayable",
      "type": "function"
    },
    {
      "inputs": [
        {
          "internalType": "bytes32",
          "name": "role",
          "type": "bytes32"
        },
        {
          "internalType": "address",
          "name": "account",
          "type": "address"
        }
      ],
      "name": "revokeRole",
      "outputs": [],
      "stateMutability": "nonpayable",
      "type": "function"
    },
    {
      "inputs": [
        {
          "internalType": "bytes4",
          "name": "interfaceId",
          "type": "bytes4"
        }
      ],
      "name": "supportsInterface",
      "outputs": [
        {
          "internalType": "bool",
          "name": "",
          "type": "bool"
        }
      ],
      "stateMutability": "view",
      "type": "function"
    },
    {
      "inputs": [
        {
          "internalType": "address",
          "name": "signer",
          "type": "address"
        },
        {
          "internalType": "address",
          "name": "oldAdmin",
          "type": "address"
        },
        {
          "internalType": "address",
          "name": "newAdmin",
          "type": "address"
        }
      ],
      "name": "transferAdminRole",
      "outputs": [],
      "stateMutability": "nonpayable",
      "type": "function"
    }
  ],
  "bytecode": "0x608060405234801561001057600080fd5b50611bad806100206000396000f3fe608060405234801561001057600080fd5b506004361061010b5760003560e01c806375b238fc116100a2578063a217fddf11610071578063a217fddf146102b6578063a912ec31146102d4578063c4d66de8146102f0578063ca15c8731461030c578063d547741f1461033c5761010b565b806375b238fc1461021c5780638a19b4d21461023a5780639010d07c1461025657806391d14854146102865761010b565b806331ae450b116100de57806331ae450b146101a857806336568abe146101c65780634460bdd6146101e25780634e76da47146102005761010b565b806301ffc9a714610110578063248a9ca314610140578063268959e5146101705780632f2ff15d1461018c575b600080fd5b61012a60048036038101906101259190611455565b610358565b604051610137919061149d565b60405180910390f35b61015a600480360381019061015591906114ee565b6103d2565b604051610167919061152a565b60405180910390f35b61018a600480360381019061018591906115a3565b610400565b005b6101a660048036038101906101a191906115e3565b6104da565b005b6101b06104fc565b6040516101bd91906116e1565b60405180910390f35b6101e060048036038101906101db91906115e3565b610616565b005b6101ea610691565b6040516101f7919061152a565b60405180910390f35b61021a60048036038101906102159190611703565b6106b5565b005b61022461083a565b604051610231919061152a565b60405180910390f35b610254600480360381019061024f91906115a3565b61085e565b005b610270600480360381019061026b919061178c565b610938565b60405161027d91906117db565b60405180910390f35b6102a0600480360381019061029b91906115e3565b610975565b6040516102ad919061149d565b60405180910390f35b6102be6109ee565b6040516102cb919061152a565b60405180910390f35b6102ee60048036038101906102e991906117f6565b6109f5565b005b61030a600480360381019061030591906117f6565b610a8b565b005b610326600480360381019061032191906114ee565b610c52565b6040516103339190611832565b60405180910390f35b610356600480360381019061035191906115e3565b610c84565b005b60007f5a05180f000000000000000000000000000000000000000000000000000000007bffffffffffffffffffffffffffffffffffffffffffffffffffffffff1916827bffffffffffffffffffffffffffffffffffffffffffffffffffffffff191614806103cb57506103ca82610ca6565b5b9050919050565b6000806103dd610d20565b905080600001600084815260200190815260200160002060010154915050919050565b61042a7f7613a25ecc738585a232ad50a301178f12b3ba8887d13e138b523c4269c4768983610975565b610469576040517f08c379a0000000000000000000000000000000000000000000000000000000008152600401610460906118aa565b60405180910390fd5b6104937fa49807205ce4d355092ef5a8a18f56e8913cf4a201fbe287825b095693c2177582610c84565b8073ffffffffffffffffffffffffffffffffffffffff167fa3b62bc36326052d97ea62d63c3d60308ed4c3ea8ac079dd8499f1e9c4f80c0f60405160405180910390a25050565b6104e3826103d2565b6104ec81610d48565b6104f68383610d5c565b50505050565b606060006105297fa49807205ce4d355092ef5a8a18f56e8913cf4a201fbe287825b095693c21775610c52565b905060008167ffffffffffffffff811115610547576105466118ca565b5b6040519080825280602002602001820160405280156105755781602001602082028036833780820191505090505b50905060005b8281101561060d576105ad7fa49807205ce4d355092ef5a8a18f56e8913cf4a201fbe287825b095693c2177582610938565b8282815181106105c0576105bf6118f9565b5b602002602001019073ffffffffffffffffffffffffffffffffffffffff16908173ffffffffffffffffffffffffffffffffffffffff1681525050808061060590611957565b91505061057b565b50809250505090565b61061e610db1565b73ffffffffffffffffffffffffffffffffffffffff168173ffffffffffffffffffffffffffffffffffffffff1614610682576040517f6697b23200000000000000000000000000000000000000000000000000000000815260040160405180910390fd5b61068c8282610db9565b505050565b7f7613a25ecc738585a232ad50a301178f12b3ba8887d13e138b523c4269c4768981565b6106df7f7613a25ecc738585a232ad50a301178f12b3ba8887d13e138b523c4269c4768984610975565b61071e576040517f08c379a0000000000000000000000000000000000000000000000000000000008152600401610715906118aa565b60405180910390fd5b6107487fa49807205ce4d355092ef5a8a18f56e8913cf4a201fbe287825b095693c2177583610975565b610787576040517f08c379a000000000000000000000000000000000000000000000000000000000815260040161077e906119eb565b60405180910390fd5b6107b17fa49807205ce4d355092ef5a8a18f56e8913cf4a201fbe287825b095693c2177583610c84565b6107db7fa49807205ce4d355092ef5a8a18f56e8913cf4a201fbe287825b095693c21775826104da565b8073ffffffffffffffffffffffffffffffffffffffff168273ffffffffffffffffffffffffffffffffffffffff167fe379ac64de02d8184ca1a871ac486cb8137de77e485ede140e97057b9c765ffd60405160405180910390a3505050565b7fa49807205ce4d355092ef5a8a18f56e8913cf4a201fbe287825b095693c2177581565b6108887f7613a25ecc738585a232ad50a301178f12b3ba8887d13e138b523c4269c4768983610975565b6108c7576040517f08c379a00000000000000000000000000000000000000000000000000000000081526004016108be906118aa565b60405180910390fd5b6108f17fa49807205ce4d355092ef5a8a18f56e8913cf4a201fbe287825b095693c21775826104da565b8073ffffffffffffffffffffffffffffffffffffffff167f44d6d25963f097ad14f29f06854a01f575648a1ef82f30e562ccd3889717e33960405160405180910390a25050565b600080610943610e0e565b905061096c83826000016000878152602001908152602001600020610e3690919063ffffffff16565b91505092915050565b600080610980610d20565b905080600001600085815260200190815260200160002060000160008473ffffffffffffffffffffffffffffffffffffffff1673ffffffffffffffffffffffffffffffffffffffff16815260200190815260200160002060009054906101000a900460ff1691505092915050565b6000801b81565b610a1f7fa49807205ce4d355092ef5a8a18f56e8913cf4a201fbe287825b095693c2177582610975565b610a5e576040517f08c379a0000000000000000000000000000000000000000000000000000000008152600401610a5590611a57565b60405180910390fd5b610a887fa49807205ce4d355092ef5a8a18f56e8913cf4a201fbe287825b095693c2177582610616565b50565b6000610a95610e50565b905060008160000160089054906101000a900460ff1615905060008260000160009054906101000a900467ffffffffffffffff1690506000808267ffffffffffffffff16148015610ae35750825b9050600060018367ffffffffffffffff16148015610b18575060003073ffffffffffffffffffffffffffffffffffffffff163b145b905081158015610b26575080155b15610b5d576040517ff92ee8a900000000000000000000000000000000000000000000000000000000815260040160405180910390fd5b60018560000160006101000a81548167ffffffffffffffff021916908367ffffffffffffffff1602179055508315610bad5760018560000160086101000a81548160ff0219169083151502179055505b610bb5610e78565b610bc26000801b87610d5c565b50610bed7f7613a25ecc738585a232ad50a301178f12b3ba8887d13e138b523c4269c4768987610d5c565b508315610c4a5760008560000160086101000a81548160ff0219169083151502179055507fc7f505b2f371ae2175ee4913f4499e1f2633a7b5936321eed1cdaeb6115181d26001604051610c419190611ad0565b60405180910390a15b505050505050565b600080610c5d610e0e565b9050610c7c816000016000858152602001908152602001600020610e82565b915050919050565b610c8d826103d2565b610c9681610d48565b610ca08383610db9565b50505050565b60007f7965db0b000000000000000000000000000000000000000000000000000000007bffffffffffffffffffffffffffffffffffffffffffffffffffffffff1916827bffffffffffffffffffffffffffffffffffffffffffffffffffffffff19161480610d195750610d1882610e97565b5b9050919050565b60007f02dd7bc7dec4dceedda775e58dd541e08a116c6c53815c0bd028192f7b626800905090565b610d5981610d54610db1565b610f01565b50565b600080610d67610e0e565b90506000610d758585610f52565b90508015610da657610da48483600001600088815260200190815260200160002061105390919063ffffffff16565b505b809250505092915050565b600033905090565b600080610dc4610e0e565b90506000610dd28585611083565b90508015610e0357610e018483600001600088815260200190815260200160002061118590919063ffffffff16565b505b809250505092915050565b60007fc1f6fe24621ce81ec5827caf0253cadb74709b061630e6b55e82371705932000905090565b6000610e4583600001836111b5565b60001c905092915050565b60007ff0c57e16840df040f15088dc2f81fe391c3923bec73e23a9662efc9c229c6a00905090565b610e806111e0565b565b6000610e9082600001611220565b9050919050565b60007f01ffc9a7000000000000000000000000000000000000000000000000000000007bffffffffffffffffffffffffffffffffffffffffffffffffffffffff1916827bffffffffffffffffffffffffffffffffffffffffffffffffffffffff1916149050919050565b610f0b8282610975565b610f4e5780826040517fe2517d3f000000000000000000000000000000000000000000000000000000008152600401610f45929190611aeb565b60405180910390fd5b5050565b600080610f5d610d20565b9050610f698484610975565b61104757600181600001600086815260200190815260200160002060000160008573ffffffffffffffffffffffffffffffffffffffff1673ffffffffffffffffffffffffffffffffffffffff16815260200190815260200160002060006101000a81548160ff021916908315150217905550610fe3610db1565b73ffffffffffffffffffffffffffffffffffffffff168373ffffffffffffffffffffffffffffffffffffffff16857f2f8788117e7eff1d82e926ec794901d17c78024a50270940304540a733656f0d60405160405180910390a4600191505061104d565b60009150505b92915050565b600061107b836000018373ffffffffffffffffffffffffffffffffffffffff1660001b611231565b905092915050565b60008061108e610d20565b905061109a8484610975565b1561117957600081600001600086815260200190815260200160002060000160008573ffffffffffffffffffffffffffffffffffffffff1673ffffffffffffffffffffffffffffffffffffffff16815260200190815260200160002060006101000a81548160ff021916908315150217905550611115610db1565b73ffffffffffffffffffffffffffffffffffffffff168373ffffffffffffffffffffffffffffffffffffffff16857ff6391f5c32d9c69d2a47ea670b442974b53935d1edc7fd64eb21e047a839171b60405160405180910390a4600191505061117f565b60009150505b92915050565b60006111ad836000018373ffffffffffffffffffffffffffffffffffffffff1660001b6112a1565b905092915050565b60008260000182815481106111cd576111cc6118f9565b5b9060005260206000200154905092915050565b6111e86113b5565b61121e576040517fd7e6bcf800000000000000000000000000000000000000000000000000000000815260040160405180910390fd5b565b600081600001805490509050919050565b600061123d83836113d5565b61129657826000018290806001815401808255809150506001900390600052602060002001600090919091909150558260000180549050836001016000848152602001908152602001600020819055506001905061129b565b600090505b92915050565b600080836001016000848152602001908152602001600020549050600081146113a95760006001826112d39190611b14565b90506000600186600001805490506112eb9190611b14565b905080821461135a57600086600001828154811061130c5761130b6118f9565b5b90600052602060002001549050808760000184815481106113305761132f6118f9565b5b90600052602060002001819055508387600101600083815260200190815260200160002081905550505b8560000180548061136e5761136d611b48565b5b6001900381819060005260206000200160009055905585600101600086815260200190815260200160002060009055600193505050506113af565b60009150505b92915050565b60006113bf610e50565b60000160089054906101000a900460ff16905090565b600080836001016000848152602001908152602001600020541415905092915050565b600080fd5b60007fffffffff0000000000000000000000000000000000000000000000000000000082169050919050565b611432816113fd565b811461143d57600080fd5b50565b60008135905061144f81611429565b92915050565b60006020828403121561146b5761146a6113f8565b5b600061147984828501611440565b91505092915050565b60008115159050919050565b61149781611482565b82525050565b60006020820190506114b2600083018461148e565b92915050565b6000819050919050565b6114cb816114b8565b81146114d657600080fd5b50565b6000813590506114e8816114c2565b92915050565b600060208284031215611504576115036113f8565b5b6000611512848285016114d9565b91505092915050565b611524816114b8565b82525050565b600060208201905061153f600083018461151b565b92915050565b600073ffffffffffffffffffffffffffffffffffffffff82169050919050565b600061157082611545565b9050919050565b61158081611565565b811461158b57600080fd5b50565b60008135905061159d81611577565b92915050565b600080604083850312156115ba576115b96113f8565b5b60006115c88582860161158e565b92505060206115d98582860161158e565b9150509250929050565b600080604083850312156115fa576115f96113f8565b5b6000611608858286016114d9565b92505060206116198582860161158e565b9150509250929050565b600081519050919050565b600082825260208201905092915050565b6000819050602082019050919050565b61165881611565565b82525050565b600061166a838361164f565b60208301905092915050565b6000602082019050919050565b600061168e82611623565b611698818561162e565b93506116a38361163f565b8060005b838110156116d45781516116bb888261165e565b97506116c683611676565b9250506001810190506116a7565b5085935050505092915050565b600060208201905081810360008301526116fb8184611683565b905092915050565b60008060006060848603121561171c5761171b6113f8565b5b600061172a8682870161158e565b935050602061173b8682870161158e565b925050604061174c8682870161158e565b9150509250925092565b6000819050919050565b61176981611756565b811461177457600080fd5b50565b60008135905061178681611760565b92915050565b600080604083850312156117a3576117a26113f8565b5b60006117b1858286016114d9565b92505060206117c285828601611777565b9150509250929050565b6117d581611565565b82525050565b60006020820190506117f060008301846117cc565b92915050565b60006020828403121561180c5761180b6113f8565b5b600061181a8482850161158e565b91505092915050565b61182c81611756565b82525050565b60006020820190506118476000830184611823565b92915050565b600082825260208201905092915050565b7f43616c6c6572206973206e6f7420612073757065722061646d696e0000000000600082015250565b6000611894601b8361184d565b915061189f8261185e565b602082019050919050565b600060208201905081810360008301526118c381611887565b9050919050565b7f4e487b7100000000000000000000000000000000000000000000000000000000600052604160045260246000fd5b7f4e487b7100000000000000000000000000000000000000000000000000000000600052603260045260246000fd5b7f4e487b7100000000000000000000000000000000000000000000000000000000600052601160045260246000fd5b600061196282611756565b91507fffffffffffffffffffffffffffffffffffffffffffffffffffffffffffffffff820361199457611993611928565b5b600182019050919050565b7f4f6c642061646d696e206973206e6f7420616e2061646d696e00000000000000600082015250565b60006119d560198361184d565b91506119e08261199f565b602082019050919050565b60006020820190508181036000830152611a04816119c8565b9050919050565b7f43616c6c6572206973206e6f7420616e2061646d696e00000000000000000000600082015250565b6000611a4160168361184d565b9150611a4c82611a0b565b602082019050919050565b60006020820190508181036000830152611a7081611a34565b9050919050565b6000819050919050565b600067ffffffffffffffff82169050919050565b6000819050919050565b6000611aba611ab5611ab084611a77565b611a95565b611a81565b9050919050565b611aca81611a9f565b82525050565b6000602082019050611ae56000830184611ac1565b92915050565b6000604082019050611b0060008301856117cc565b611b0d602083018461151b565b9392505050565b6000611b1f82611756565b9150611b2a83611756565b9250828203905081811115611b4257611b41611928565b5b92915050565b7f4e487b7100000000000000000000000000000000000000000000000000000000600052603160045260246000fdfea26469706673582212200bae6c963c23b7fe2b01420a78e38357b647173125a34f574bfa10c88b32584b64736f6c63430008140033",
  "linkReferences": {},
  "deployedLinkReferences": {}
}