{
  "_format": "hh-sol-artifact-1",
  "contractName": "UpgradedContractA",
  "sourceName": "contracts/upgradedA.sol",
  "abi": [
    {
      "inputs": [],
      "name": "AccessControlBadConfirmation",
      "type": "error"
    },
    {
      "inputs": [
        {
          "internalType": "address",
          "name": "account",
          "type": "address"
        },
        {
          "internalType": "bytes32",
          "name": "neededRole",
          "type": "bytes32"
        }
      ],
      "name": "AccessControlUnauthorizedAccount",
      "type": "error"
    },
    {
      "inputs": [],
      "name": "InvalidInitialization",
      "type": "error"
    },
    {
      "inputs": [],
      "name": "NotInitializing",
      "type": "error"
    },
    {
      "inputs": [],
      "name": "ReentrancyGuardReentrantCall",
      "type": "error"
    },
    {
      "anonymous": false,
      "inputs": [
        {
          "indexed": true,
          "internalType": "address",
          "name": "newAdmin",
          "type": "address"
        }
      ],
      "name": "AdminAdded",
      "type": "event"
    },
    {
      "anonymous": false,
      "inputs": [
        {
          "indexed": true,
          "internalType": "address",
          "name": "admin",
          "type": "address"
        }
      ],
      "name": "AdminRemoved",
      "type": "event"
    },
    {
      "anonymous": false,
      "inputs": [
        {
          "indexed": true,
          "internalType": "address",
          "name": "oldAdmin",
          "type": "address"
        },
        {
          "indexed": true,
          "internalType": "address",
          "name": "newAdmin",
          "type": "address"
        }
      ],
      "name": "AdminRoleTransferred",
      "type": "event"
    },
    {
      "anonymous": false,
      "inputs": [
        {
          "indexed": false,
          "internalType": "uint64",
          "name": "version",
          "type": "uint64"
        }
      ],
      "name": "Initialized",
      "type": "event"
    },
    {
      "anonymous": false,
      "inputs": [
        {
          "indexed": true,
          "internalType": "bytes32",
          "name": "role",
          "type": "bytes32"
        },
        {
          "indexed": true,
          "internalType": "bytes32",
          "name": "previousAdminRole",
          "type": "bytes32"
        },
        {
          "indexed": true,
          "internalType": "bytes32",
          "name": "newAdminRole",
          "type": "bytes32"
        }
      ],
      "name": "RoleAdminChanged",
      "type": "event"
    },
    {
      "anonymous": false,
      "inputs": [
        {
          "indexed": true,
          "internalType": "bytes32",
          "name": "role",
          "type": "bytes32"
        },
        {
          "indexed": true,
          "internalType": "address",
          "name": "account",
          "type": "address"
        },
        {
          "indexed": true,
          "internalType": "address",
          "name": "sender",
          "type": "address"
        }
      ],
      "name": "RoleGranted",
      "type": "event"
    },
    {
      "anonymous": false,
      "inputs": [
        {
          "indexed": true,
          "internalType": "bytes32",
          "name": "role",
          "type": "bytes32"
        },
        {
          "indexed": true,
          "internalType": "address",
          "name": "account",
          "type": "address"
        },
        {
          "indexed": true,
          "internalType": "address",
          "name": "sender",
          "type": "address"
        }
      ],
      "name": "RoleRevoked",
      "type": "event"
    },
    {
      "anonymous": false,
      "inputs": [
        {
          "indexed": false,
          "internalType": "uint256",
          "name": "newValue",
          "type": "uint256"
        }
      ],
      "name": "ValueSet",
      "type": "event"
    },
    {
      "inputs": [],
      "name": "ADMIN_ROLE",
      "outputs": [
        {
          "internalType": "bytes32",
          "name": "",
          "type": "bytes32"
        }
      ],
      "stateMutability": "view",
      "type": "function"
    },
    {
      "inputs": [],
      "name": "DEFAULT_ADMIN_ROLE",
      "outputs": [
        {
          "internalType": "bytes32",
          "name": "",
          "type": "bytes32"
        }
      ],
      "stateMutability": "view",
      "type": "function"
    },
    {
      "inputs": [],
      "name": "SUPER_ADMIN_ROLE",
      "outputs": [
        {
          "internalType": "bytes32",
          "name": "",
          "type": "bytes32"
        }
      ],
      "stateMutability": "view",
      "type": "function"
    },
    {
      "inputs": [
        {
          "internalType": "address",
          "name": "signer",
          "type": "address"
        },
        {
          "internalType": "address",
          "name": "newAdmin",
          "type": "address"
        }
      ],
      "name": "addAdmin",
      "outputs": [],
      "stateMutability": "nonpayable",
      "type": "function"
    },
    {
      "inputs": [],
      "name": "getAdmins",
      "outputs": [
        {
          "internalType": "address[]",
          "name": "",
          "type": "address[]"
        }
      ],
      "stateMutability": "view",
      "type": "function"
    },
    {
      "inputs": [
        {
          "internalType": "bytes32",
          "name": "role",
          "type": "bytes32"
        }
      ],
      "name": "getRoleAdmin",
      "outputs": [
        {
          "internalType": "bytes32",
          "name": "",
          "type": "bytes32"
        }
      ],
      "stateMutability": "view",
      "type": "function"
    },
    {
      "inputs": [
        {
          "internalType": "bytes32",
          "name": "role",
          "type": "bytes32"
        },
        {
          "internalType": "uint256",
          "name": "index",
          "type": "uint256"
        }
      ],
      "name": "getRoleMember",
      "outputs": [
        {
          "internalType": "address",
          "name": "",
          "type": "address"
        }
      ],
      "stateMutability": "view",
      "type": "function"
    },
    {
      "inputs": [
        {
          "internalType": "bytes32",
          "name": "role",
          "type": "bytes32"
        }
      ],
      "name": "getRoleMemberCount",
      "outputs": [
        {
          "internalType": "uint256",
          "name": "",
          "type": "uint256"
        }
      ],
      "stateMutability": "view",
      "type": "function"
    },
    {
      "inputs": [],
      "name": "getValue",
      "outputs": [
        {
          "internalType": "uint256",
          "name": "",
          "type": "uint256"
        }
      ],
      "stateMutability": "view",
      "type": "function"
    },
    {
      "inputs": [
        {
          "internalType": "bytes32",
          "name": "role",
          "type": "bytes32"
        },
        {
          "internalType": "address",
          "name": "account",
          "type": "address"
        }
      ],
      "name": "grantRole",
      "outputs": [],
      "stateMutability": "nonpayable",
      "type": "function"
    },
    {
      "inputs": [
        {
          "internalType": "bytes32",
          "name": "role",
          "type": "bytes32"
        },
        {
          "internalType": "address",
          "name": "account",
          "type": "address"
        }
      ],
      "name": "hasRole",
      "outputs": [
        {
          "internalType": "bool",
          "name": "",
          "type": "bool"
        }
      ],
      "stateMutability": "view",
      "type": "function"
    },
    {
      "inputs": [
        {
          "internalType": "address",
          "name": "superAdmin",
          "type": "address"
        }
      ],
      "name": "initialize",
      "outputs": [],
      "stateMutability": "nonpayable",
      "type": "function"
    },
    {
      "inputs": [
        {
          "internalType": "address",
          "name": "signer",
          "type": "address"
        },
        {
          "internalType": "address",
          "name": "admin",
          "type": "address"
        }
      ],
      "name": "removeAdmin",
      "outputs": [],
      "stateMutability": "nonpayable",
      "type": "function"
    },
    {
      "inputs": [
        {
          "internalType": "address",
          "name": "signer",
          "type": "address"
        }
      ],
      "name": "renounceAdminRole",
      "outputs": [],
      "stateMutability": "nonpayable",
      "type": "function"
    },
    {
      "inputs": [
        {
          "internalType": "bytes32",
          "name": "role",
          "type": "bytes32"
        },
        {
          "internalType": "address",
          "name": "callerConfirmation",
          "type": "address"
        }
      ],
      "name": "renounceRole",
      "outputs": [],
      "stateMutability": "nonpayable",
      "type": "function"
    },
    {
      "inputs": [
        {
          "internalType": "bytes32",
          "name": "role",
          "type": "bytes32"
        },
        {
          "internalType": "address",
          "name": "account",
          "type": "address"
        }
      ],
      "name": "revokeRole",
      "outputs": [],
      "stateMutability": "nonpayable",
      "type": "function"
    },
    {
      "inputs": [
        {
          "internalType": "uint256",
          "name": "_value",
          "type": "uint256"
        },
        {
          "internalType": "address",
          "name": "_sender",
          "type": "address"
        }
      ],
      "name": "setValue",
      "outputs": [],
      "stateMutability": "nonpayable",
      "type": "function"
    },
    {
      "inputs": [
        {
          "internalType": "bytes4",
          "name": "interfaceId",
          "type": "bytes4"
        }
      ],
      "name": "supportsInterface",
      "outputs": [
        {
          "internalType": "bool",
          "name": "",
          "type": "bool"
        }
      ],
      "stateMutability": "view",
      "type": "function"
    },
    {
      "inputs": [
        {
          "internalType": "address",
          "name": "signer",
          "type": "address"
        },
        {
          "internalType": "address",
          "name": "oldAdmin",
          "type": "address"
        },
        {
          "internalType": "address",
          "name": "newAdmin",
          "type": "address"
        }
      ],
      "name": "transferAdminRole",
      "outputs": [],
      "stateMutability": "nonpayable",
      "type": "function"
    },
    {
      "stateMutability": "payable",
      "type": "receive"
    }
  ],
  "bytecode": "0x608060405234801561001057600080fd5b5061217a806100206000396000f3fe6080604052600436106101185760003560e01c80634e76da47116100a0578063a217fddf11610064578063a217fddf146103ba578063a912ec31146103e5578063c4d66de81461040e578063ca15c87314610437578063d547741f146104745761011f565b80634e76da47146102c357806375b238fc146102ec5780638a19b4d2146103175780639010d07c1461034057806391d148541461037d5761011f565b80632f2ff15d116100e75780632f2ff15d146101f257806331ae450b1461021b5780633472df221461024657806336568abe1461026f5780634460bdd6146102985761011f565b806301ffc9a7146101245780632096525514610161578063248a9ca31461018c578063268959e5146101c95761011f565b3661011f57005b600080fd5b34801561013057600080fd5b5061014b60048036038101906101469190611942565b61049d565b604051610158919061198a565b60405180910390f35b34801561016d57600080fd5b50610176610517565b60405161018391906119be565b60405180910390f35b34801561019857600080fd5b506101b360048036038101906101ae9190611a0f565b610520565b6040516101c09190611a4b565b60405180910390f35b3480156101d557600080fd5b506101f060048036038101906101eb9190611ac4565b61054e565b005b3480156101fe57600080fd5b5061021960048036038101906102149190611b04565b610628565b005b34801561022757600080fd5b5061023061064a565b60405161023d9190611c02565b60405180910390f35b34801561025257600080fd5b5061026d60048036038101906102689190611c50565b610764565b005b34801561027b57600080fd5b5061029660048036038101906102919190611b04565b610832565b005b3480156102a457600080fd5b506102ad6108ad565b6040516102ba9190611a4b565b60405180910390f35b3480156102cf57600080fd5b506102ea60048036038101906102e59190611c90565b6108d1565b005b3480156102f857600080fd5b50610301610a56565b60405161030e9190611a4b565b60405180910390f35b34801561032357600080fd5b5061033e60048036038101906103399190611ac4565b610a7a565b005b34801561034c57600080fd5b5061036760048036038101906103629190611ce3565b610b54565b6040516103749190611d32565b60405180910390f35b34801561038957600080fd5b506103a4600480360381019061039f9190611b04565b610b91565b6040516103b1919061198a565b60405180910390f35b3480156103c657600080fd5b506103cf610c0a565b6040516103dc9190611a4b565b60405180910390f35b3480156103f157600080fd5b5061040c60048036038101906104079190611d4d565b610c11565b005b34801561041a57600080fd5b5061043560048036038101906104309190611d4d565b610ca7565b005b34801561044357600080fd5b5061045e60048036038101906104599190611a0f565b610ead565b60405161046b91906119be565b60405180910390f35b34801561048057600080fd5b5061049b60048036038101906104969190611b04565b610edf565b005b60007f5a05180f000000000000000000000000000000000000000000000000000000007bffffffffffffffffffffffffffffffffffffffffffffffffffffffff1916827bffffffffffffffffffffffffffffffffffffffffffffffffffffffff19161480610510575061050f82610f01565b5b9050919050565b60008054905090565b60008061052b610f7b565b905080600001600084815260200190815260200160002060010154915050919050565b6105787f7613a25ecc738585a232ad50a301178f12b3ba8887d13e138b523c4269c4768983610b91565b6105b7576040517f08c379a00000000000000000000000000000000000000000000000000000000081526004016105ae90611dd7565b60405180910390fd5b6105e17fa49807205ce4d355092ef5a8a18f56e8913cf4a201fbe287825b095693c2177582610edf565b8073ffffffffffffffffffffffffffffffffffffffff167fa3b62bc36326052d97ea62d63c3d60308ed4c3ea8ac079dd8499f1e9c4f80c0f60405160405180910390a25050565b61063182610520565b61063a81610fa3565b6106448383610fb7565b50505050565b606060006106777fa49807205ce4d355092ef5a8a18f56e8913cf4a201fbe287825b095693c21775610ead565b905060008167ffffffffffffffff81111561069557610694611df7565b5b6040519080825280602002602001820160405280156106c35781602001602082028036833780820191505090505b50905060005b8281101561075b576106fb7fa49807205ce4d355092ef5a8a18f56e8913cf4a201fbe287825b095693c2177582610b54565b82828151811061070e5761070d611e26565b5b602002602001019073ffffffffffffffffffffffffffffffffffffffff16908173ffffffffffffffffffffffffffffffffffffffff1681525050808061075390611e84565b9150506106c9565b50809250505090565b61076c61100c565b6107967fa49807205ce4d355092ef5a8a18f56e8913cf4a201fbe287825b095693c2177582610b91565b6107d5576040517f08c379a00000000000000000000000000000000000000000000000000000000081526004016107cc90611f18565b60405180910390fd5b816000808282546107e69190611f38565b925050819055507f012c78e2b84325878b1bd9d250d772cfe5bda7722d795f45036fa5e1e6e303fc60005460405161081e91906119be565b60405180910390a161082e611063565b5050565b61083a61107c565b73ffffffffffffffffffffffffffffffffffffffff168173ffffffffffffffffffffffffffffffffffffffff161461089e576040517f6697b23200000000000000000000000000000000000000000000000000000000815260040160405180910390fd5b6108a88282611084565b505050565b7f7613a25ecc738585a232ad50a301178f12b3ba8887d13e138b523c4269c4768981565b6108fb7f7613a25ecc738585a232ad50a301178f12b3ba8887d13e138b523c4269c4768984610b91565b61093a576040517f08c379a000000000000000000000000000000000000000000000000000000000815260040161093190611dd7565b60405180910390fd5b6109647fa49807205ce4d355092ef5a8a18f56e8913cf4a201fbe287825b095693c2177583610b91565b6109a3576040517f08c379a000000000000000000000000000000000000000000000000000000000815260040161099a90611fb8565b60405180910390fd5b6109cd7fa49807205ce4d355092ef5a8a18f56e8913cf4a201fbe287825b095693c2177583610edf565b6109f77fa49807205ce4d355092ef5a8a18f56e8913cf4a201fbe287825b095693c2177582610628565b8073ffffffffffffffffffffffffffffffffffffffff168273ffffffffffffffffffffffffffffffffffffffff167fe379ac64de02d8184ca1a871ac486cb8137de77e485ede140e97057b9c765ffd60405160405180910390a3505050565b7fa49807205ce4d355092ef5a8a18f56e8913cf4a201fbe287825b095693c2177581565b610aa47f7613a25ecc738585a232ad50a301178f12b3ba8887d13e138b523c4269c4768983610b91565b610ae3576040517f08c379a0000000000000000000000000000000000000000000000000000000008152600401610ada90611dd7565b60405180910390fd5b610b0d7fa49807205ce4d355092ef5a8a18f56e8913cf4a201fbe287825b095693c2177582610628565b8073ffffffffffffffffffffffffffffffffffffffff167f44d6d25963f097ad14f29f06854a01f575648a1ef82f30e562ccd3889717e33960405160405180910390a25050565b600080610b5f6110d9565b9050610b888382600001600087815260200190815260200160002061110190919063ffffffff16565b91505092915050565b600080610b9c610f7b565b905080600001600085815260200190815260200160002060000160008473ffffffffffffffffffffffffffffffffffffffff1673ffffffffffffffffffffffffffffffffffffffff16815260200190815260200160002060009054906101000a900460ff1691505092915050565b6000801b81565b610c3b7fa49807205ce4d355092ef5a8a18f56e8913cf4a201fbe287825b095693c2177582610b91565b610c7a576040517f08c379a0000000000000000000000000000000000000000000000000000000008152600401610c7190611f18565b60405180910390fd5b610ca47fa49807205ce4d355092ef5a8a18f56e8913cf4a201fbe287825b095693c2177582610832565b50565b6000610cb161111b565b905060008160000160089054906101000a900460ff1615905060008260000160009054906101000a900467ffffffffffffffff1690506000808267ffffffffffffffff16148015610cff5750825b9050600060018367ffffffffffffffff16148015610d34575060003073ffffffffffffffffffffffffffffffffffffffff163b145b905081158015610d42575080155b15610d79576040517ff92ee8a900000000000000000000000000000000000000000000000000000000815260040160405180910390fd5b60018560000160006101000a81548167ffffffffffffffff021916908367ffffffffffffffff1602179055508315610dc95760018560000160086101000a81548160ff0219169083151502179055505b600073ffffffffffffffffffffffffffffffffffffffff168673ffffffffffffffffffffffffffffffffffffffff1603610e38576040517f08c379a0000000000000000000000000000000000000000000000000000000008152600401610e2f90612024565b60405180910390fd5b610e40611143565b610e4986611155565b8315610ea55760008560000160086101000a81548160ff0219169083151502179055507fc7f505b2f371ae2175ee4913f4499e1f2633a7b5936321eed1cdaeb6115181d26001604051610e9c919061209d565b60405180910390a15b505050505050565b600080610eb86110d9565b9050610ed781600001600085815260200190815260200160002061131c565b915050919050565b610ee882610520565b610ef181610fa3565b610efb8383611084565b50505050565b60007f7965db0b000000000000000000000000000000000000000000000000000000007bffffffffffffffffffffffffffffffffffffffffffffffffffffffff1916827bffffffffffffffffffffffffffffffffffffffffffffffffffffffff19161480610f745750610f7382611331565b5b9050919050565b60007f02dd7bc7dec4dceedda775e58dd541e08a116c6c53815c0bd028192f7b626800905090565b610fb481610faf61107c565b61139b565b50565b600080610fc26110d9565b90506000610fd085856113ec565b9050801561100157610fff848360000160008881526020019081526020016000206114ed90919063ffffffff16565b505b809250505092915050565b600061101661151d565b90506002816000015403611056576040517f3ee5aeb500000000000000000000000000000000000000000000000000000000815260040160405180910390fd5b6002816000018190555050565b600061106d61151d565b90506001816000018190555050565b600033905090565b60008061108f6110d9565b9050600061109d8585611545565b905080156110ce576110cc8483600001600088815260200190815260200160002061164790919063ffffffff16565b505b809250505092915050565b60007fc1f6fe24621ce81ec5827caf0253cadb74709b061630e6b55e82371705932000905090565b60006111108360000183611677565b60001c905092915050565b60007ff0c57e16840df040f15088dc2f81fe391c3923bec73e23a9662efc9c229c6a00905090565b61114b6116a2565b6111536116e2565b565b600061115f61111b565b905060008160000160089054906101000a900460ff1615905060008260000160009054906101000a900467ffffffffffffffff1690506000808267ffffffffffffffff161480156111ad5750825b9050600060018367ffffffffffffffff161480156111e2575060003073ffffffffffffffffffffffffffffffffffffffff163b145b9050811580156111f0575080155b15611227576040517ff92ee8a900000000000000000000000000000000000000000000000000000000815260040160405180910390fd5b60018560000160006101000a81548167ffffffffffffffff021916908367ffffffffffffffff16021790555083156112775760018560000160086101000a81548160ff0219169083151502179055505b61127f611703565b61128c6000801b87610fb7565b506112b77f7613a25ecc738585a232ad50a301178f12b3ba8887d13e138b523c4269c4768987610fb7565b5083156113145760008560000160086101000a81548160ff0219169083151502179055507fc7f505b2f371ae2175ee4913f4499e1f2633a7b5936321eed1cdaeb6115181d2600160405161130b919061209d565b60405180910390a15b505050505050565b600061132a8260000161170d565b9050919050565b60007f01ffc9a7000000000000000000000000000000000000000000000000000000007bffffffffffffffffffffffffffffffffffffffffffffffffffffffff1916827bffffffffffffffffffffffffffffffffffffffffffffffffffffffff1916149050919050565b6113a58282610b91565b6113e85780826040517fe2517d3f0000000000000000000000000000000000000000000000000000000081526004016113df9291906120b8565b60405180910390fd5b5050565b6000806113f7610f7b565b90506114038484610b91565b6114e157600181600001600086815260200190815260200160002060000160008573ffffffffffffffffffffffffffffffffffffffff1673ffffffffffffffffffffffffffffffffffffffff16815260200190815260200160002060006101000a81548160ff02191690831515021790555061147d61107c565b73ffffffffffffffffffffffffffffffffffffffff168373ffffffffffffffffffffffffffffffffffffffff16857f2f8788117e7eff1d82e926ec794901d17c78024a50270940304540a733656f0d60405160405180910390a460019150506114e7565b60009150505b92915050565b6000611515836000018373ffffffffffffffffffffffffffffffffffffffff1660001b61171e565b905092915050565b60007f9b779b17422d0df92223018b32b4d1fa46e071723d6817e2486d003becc55f00905090565b600080611550610f7b565b905061155c8484610b91565b1561163b57600081600001600086815260200190815260200160002060000160008573ffffffffffffffffffffffffffffffffffffffff1673ffffffffffffffffffffffffffffffffffffffff16815260200190815260200160002060006101000a81548160ff0219169083151502179055506115d761107c565b73ffffffffffffffffffffffffffffffffffffffff168373ffffffffffffffffffffffffffffffffffffffff16857ff6391f5c32d9c69d2a47ea670b442974b53935d1edc7fd64eb21e047a839171b60405160405180910390a46001915050611641565b60009150505b92915050565b600061166f836000018373ffffffffffffffffffffffffffffffffffffffff1660001b61178e565b905092915050565b600082600001828154811061168f5761168e611e26565b5b9060005260206000200154905092915050565b6116aa6118a2565b6116e0576040517fd7e6bcf800000000000000000000000000000000000000000000000000000000815260040160405180910390fd5b565b6116ea6116a2565b60006116f461151d565b90506001816000018190555050565b61170b6116a2565b565b600081600001805490509050919050565b600061172a83836118c2565b611783578260000182908060018154018082558091505060019003906000526020600020016000909190919091505582600001805490508360010160008481526020019081526020016000208190555060019050611788565b600090505b92915050565b600080836001016000848152602001908152602001600020549050600081146118965760006001826117c091906120e1565b90506000600186600001805490506117d891906120e1565b90508082146118475760008660000182815481106117f9576117f8611e26565b5b906000526020600020015490508087600001848154811061181d5761181c611e26565b5b90600052602060002001819055508387600101600083815260200190815260200160002081905550505b8560000180548061185b5761185a612115565b5b60019003818190600052602060002001600090559055856001016000868152602001908152602001600020600090556001935050505061189c565b60009150505b92915050565b60006118ac61111b565b60000160089054906101000a900460ff16905090565b600080836001016000848152602001908152602001600020541415905092915050565b600080fd5b60007fffffffff0000000000000000000000000000000000000000000000000000000082169050919050565b61191f816118ea565b811461192a57600080fd5b50565b60008135905061193c81611916565b92915050565b600060208284031215611958576119576118e5565b5b60006119668482850161192d565b91505092915050565b60008115159050919050565b6119848161196f565b82525050565b600060208201905061199f600083018461197b565b92915050565b6000819050919050565b6119b8816119a5565b82525050565b60006020820190506119d360008301846119af565b92915050565b6000819050919050565b6119ec816119d9565b81146119f757600080fd5b50565b600081359050611a09816119e3565b92915050565b600060208284031215611a2557611a246118e5565b5b6000611a33848285016119fa565b91505092915050565b611a45816119d9565b82525050565b6000602082019050611a606000830184611a3c565b92915050565b600073ffffffffffffffffffffffffffffffffffffffff82169050919050565b6000611a9182611a66565b9050919050565b611aa181611a86565b8114611aac57600080fd5b50565b600081359050611abe81611a98565b92915050565b60008060408385031215611adb57611ada6118e5565b5b6000611ae985828601611aaf565b9250506020611afa85828601611aaf565b9150509250929050565b60008060408385031215611b1b57611b1a6118e5565b5b6000611b29858286016119fa565b9250506020611b3a85828601611aaf565b9150509250929050565b600081519050919050565b600082825260208201905092915050565b6000819050602082019050919050565b611b7981611a86565b82525050565b6000611b8b8383611b70565b60208301905092915050565b6000602082019050919050565b6000611baf82611b44565b611bb98185611b4f565b9350611bc483611b60565b8060005b83811015611bf5578151611bdc8882611b7f565b9750611be783611b97565b925050600181019050611bc8565b5085935050505092915050565b60006020820190508181036000830152611c1c8184611ba4565b905092915050565b611c2d816119a5565b8114611c3857600080fd5b50565b600081359050611c4a81611c24565b92915050565b60008060408385031215611c6757611c666118e5565b5b6000611c7585828601611c3b565b9250506020611c8685828601611aaf565b9150509250929050565b600080600060608486031215611ca957611ca86118e5565b5b6000611cb786828701611aaf565b9350506020611cc886828701611aaf565b9250506040611cd986828701611aaf565b9150509250925092565b60008060408385031215611cfa57611cf96118e5565b5b6000611d08858286016119fa565b9250506020611d1985828601611c3b565b9150509250929050565b611d2c81611a86565b82525050565b6000602082019050611d476000830184611d23565b92915050565b600060208284031215611d6357611d626118e5565b5b6000611d7184828501611aaf565b91505092915050565b600082825260208201905092915050565b7f43616c6c6572206973206e6f7420612073757065722061646d696e0000000000600082015250565b6000611dc1601b83611d7a565b9150611dcc82611d8b565b602082019050919050565b60006020820190508181036000830152611df081611db4565b9050919050565b7f4e487b7100000000000000000000000000000000000000000000000000000000600052604160045260246000fd5b7f4e487b7100000000000000000000000000000000000000000000000000000000600052603260045260246000fd5b7f4e487b7100000000000000000000000000000000000000000000000000000000600052601160045260246000fd5b6000611e8f826119a5565b91507fffffffffffffffffffffffffffffffffffffffffffffffffffffffffffffffff8203611ec157611ec0611e55565b5b600182019050919050565b7f43616c6c6572206973206e6f7420616e2061646d696e00000000000000000000600082015250565b6000611f02601683611d7a565b9150611f0d82611ecc565b602082019050919050565b60006020820190508181036000830152611f3181611ef5565b9050919050565b6000611f43826119a5565b9150611f4e836119a5565b9250828201905080821115611f6657611f65611e55565b5b92915050565b7f4f6c642061646d696e206973206e6f7420616e2061646d696e00000000000000600082015250565b6000611fa2601983611d7a565b9150611fad82611f6c565b602082019050919050565b60006020820190508181036000830152611fd181611f95565b9050919050565b7f496e76616c696420737570657241646d696e2061646472657373000000000000600082015250565b600061200e601a83611d7a565b915061201982611fd8565b602082019050919050565b6000602082019050818103600083015261203d81612001565b9050919050565b6000819050919050565b600067ffffffffffffffff82169050919050565b6000819050919050565b600061208761208261207d84612044565b612062565b61204e565b9050919050565b6120978161206c565b82525050565b60006020820190506120b2600083018461208e565b92915050565b60006040820190506120cd6000830185611d23565b6120da6020830184611a3c565b9392505050565b60006120ec826119a5565b91506120f7836119a5565b925082820390508181111561210f5761210e611e55565b5b92915050565b7f4e487b7100000000000000000000000000000000000000000000000000000000600052603160045260246000fdfea2646970667358221220d55db2c74496917d9e0952f12cd389d7b541740fba74eafc6ca0b495150cbe6964736f6c63430008140033",
  "linkReferences": {},
  "deployedLinkReferences": {}
}