{
  "_format": "hh-sol-artifact-1",
  "contractName": "ContractA",
  "sourceName": "contracts/contractA.sol",
  "abi": [
    {
      "inputs": [],
      "name": "AccessControlBadConfirmation",
      "type": "error"
    },
    {
      "inputs": [
        {
          "internalType": "address",
          "name": "account",
          "type": "address"
        },
        {
          "internalType": "bytes32",
          "name": "neededRole",
          "type": "bytes32"
        }
      ],
      "name": "AccessControlUnauthorizedAccount",
      "type": "error"
    },
    {
      "inputs": [],
      "name": "InvalidInitialization",
      "type": "error"
    },
    {
      "inputs": [],
      "name": "NotInitializing",
      "type": "error"
    },
    {
      "inputs": [],
      "name": "ReentrancyGuardReentrantCall",
      "type": "error"
    },
    {
      "anonymous": false,
      "inputs": [
        {
          "indexed": false,
          "internalType": "uint64",
          "name": "version",
          "type": "uint64"
        }
      ],
      "name": "Initialized",
      "type": "event"
    },
    {
      "anonymous": false,
      "inputs": [
        {
          "indexed": true,
          "internalType": "bytes32",
          "name": "role",
          "type": "bytes32"
        },
        {
          "indexed": true,
          "internalType": "bytes32",
          "name": "previousAdminRole",
          "type": "bytes32"
        },
        {
          "indexed": true,
          "internalType": "bytes32",
          "name": "newAdminRole",
          "type": "bytes32"
        }
      ],
      "name": "RoleAdminChanged",
      "type": "event"
    },
    {
      "anonymous": false,
      "inputs": [
        {
          "indexed": true,
          "internalType": "bytes32",
          "name": "role",
          "type": "bytes32"
        },
        {
          "indexed": true,
          "internalType": "address",
          "name": "account",
          "type": "address"
        },
        {
          "indexed": true,
          "internalType": "address",
          "name": "sender",
          "type": "address"
        }
      ],
      "name": "RoleGranted",
      "type": "event"
    },
    {
      "anonymous": false,
      "inputs": [
        {
          "indexed": true,
          "internalType": "bytes32",
          "name": "role",
          "type": "bytes32"
        },
        {
          "indexed": true,
          "internalType": "address",
          "name": "account",
          "type": "address"
        },
        {
          "indexed": true,
          "internalType": "address",
          "name": "sender",
          "type": "address"
        }
      ],
      "name": "RoleRevoked",
      "type": "event"
    },
    {
      "anonymous": false,
      "inputs": [
        {
          "indexed": false,
          "internalType": "uint256",
          "name": "newValue",
          "type": "uint256"
        }
      ],
      "name": "ValueSet",
      "type": "event"
    },
    {
      "inputs": [],
      "name": "ADMIN_ROLE",
      "outputs": [
        {
          "internalType": "bytes32",
          "name": "",
          "type": "bytes32"
        }
      ],
      "stateMutability": "view",
      "type": "function"
    },
    {
      "inputs": [],
      "name": "DEFAULT_ADMIN_ROLE",
      "outputs": [
        {
          "internalType": "bytes32",
          "name": "",
          "type": "bytes32"
        }
      ],
      "stateMutability": "view",
      "type": "function"
    },
    {
      "inputs": [],
      "name": "SUPER_ADMIN_ROLE",
      "outputs": [
        {
          "internalType": "bytes32",
          "name": "",
          "type": "bytes32"
        }
      ],
      "stateMutability": "view",
      "type": "function"
    },
    {
      "inputs": [
        {
          "internalType": "bytes32",
          "name": "role",
          "type": "bytes32"
        }
      ],
      "name": "getRoleAdmin",
      "outputs": [
        {
          "internalType": "bytes32",
          "name": "",
          "type": "bytes32"
        }
      ],
      "stateMutability": "view",
      "type": "function"
    },
    {
      "inputs": [
        {
          "internalType": "bytes32",
          "name": "role",
          "type": "bytes32"
        },
        {
          "internalType": "uint256",
          "name": "index",
          "type": "uint256"
        }
      ],
      "name": "getRoleMember",
      "outputs": [
        {
          "internalType": "address",
          "name": "",
          "type": "address"
        }
      ],
      "stateMutability": "view",
      "type": "function"
    },
    {
      "inputs": [
        {
          "internalType": "bytes32",
          "name": "role",
          "type": "bytes32"
        }
      ],
      "name": "getRoleMemberCount",
      "outputs": [
        {
          "internalType": "uint256",
          "name": "",
          "type": "uint256"
        }
      ],
      "stateMutability": "view",
      "type": "function"
    },
    {
      "inputs": [],
      "name": "getValue",
      "outputs": [
        {
          "internalType": "uint256",
          "name": "",
          "type": "uint256"
        }
      ],
      "stateMutability": "view",
      "type": "function"
    },
    {
      "inputs": [
        {
          "internalType": "bytes32",
          "name": "role",
          "type": "bytes32"
        },
        {
          "internalType": "address",
          "name": "account",
          "type": "address"
        }
      ],
      "name": "grantRole",
      "outputs": [],
      "stateMutability": "nonpayable",
      "type": "function"
    },
    {
      "inputs": [
        {
          "internalType": "bytes32",
          "name": "role",
          "type": "bytes32"
        },
        {
          "internalType": "address",
          "name": "account",
          "type": "address"
        }
      ],
      "name": "hasRole",
      "outputs": [
        {
          "internalType": "bool",
          "name": "",
          "type": "bool"
        }
      ],
      "stateMutability": "view",
      "type": "function"
    },
    {
      "inputs": [],
      "name": "initialize",
      "outputs": [],
      "stateMutability": "nonpayable",
      "type": "function"
    },
    {
      "inputs": [
        {
          "internalType": "bytes32",
          "name": "role",
          "type": "bytes32"
        },
        {
          "internalType": "address",
          "name": "callerConfirmation",
          "type": "address"
        }
      ],
      "name": "renounceRole",
      "outputs": [],
      "stateMutability": "nonpayable",
      "type": "function"
    },
    {
      "inputs": [
        {
          "internalType": "bytes32",
          "name": "role",
          "type": "bytes32"
        },
        {
          "internalType": "address",
          "name": "account",
          "type": "address"
        }
      ],
      "name": "revokeRole",
      "outputs": [],
      "stateMutability": "nonpayable",
      "type": "function"
    },
    {
      "inputs": [
        {
          "internalType": "uint256",
          "name": "_value",
          "type": "uint256"
        },
        {
          "internalType": "address",
          "name": "_sender",
          "type": "address"
        }
      ],
      "name": "setValue",
      "outputs": [],
      "stateMutability": "nonpayable",
      "type": "function"
    },
    {
      "inputs": [
        {
          "internalType": "bytes4",
          "name": "interfaceId",
          "type": "bytes4"
        }
      ],
      "name": "supportsInterface",
      "outputs": [
        {
          "internalType": "bool",
          "name": "",
          "type": "bool"
        }
      ],
      "stateMutability": "view",
      "type": "function"
    }
  ],
  "bytecode": "0x608060405234801561001057600080fd5b5061159d806100206000396000f3fe608060405234801561001057600080fd5b50600436106100ea5760003560e01c806375b238fc1161008c57806391d148541161006657806391d1485414610237578063a217fddf14610267578063ca15c87314610285578063d547741f146102b5576100ea565b806375b238fc146101df5780638129fc1c146101fd5780639010d07c14610207576100ea565b80632f2ff15d116100c85780632f2ff15d1461016d5780633472df221461018957806336568abe146101a55780634460bdd6146101c1576100ea565b806301ffc9a7146100ef578063209652551461011f578063248a9ca31461013d575b600080fd5b610109600480360381019061010491906110c0565b6102d1565b6040516101169190611108565b60405180910390f35b61012761034b565b604051610134919061113c565b60405180910390f35b6101576004803603810190610152919061118d565b610354565b60405161016491906111c9565b60405180910390f35b61018760048036038101906101829190611242565b610382565b005b6101a3600480360381019061019e91906112ae565b6103a4565b005b6101bf60048036038101906101ba9190611242565b610472565b005b6101c96104ed565b6040516101d691906111c9565b60405180910390f35b6101e7610511565b6040516101f491906111c9565b60405180910390f35b610205610535565b005b610221600480360381019061021c91906112ee565b610735565b60405161022e919061133d565b60405180910390f35b610251600480360381019061024c9190611242565b610772565b60405161025e9190611108565b60405180910390f35b61026f6107eb565b60405161027c91906111c9565b60405180910390f35b61029f600480360381019061029a919061118d565b6107f2565b6040516102ac919061113c565b60405180910390f35b6102cf60048036038101906102ca9190611242565b610824565b005b60007f5a05180f000000000000000000000000000000000000000000000000000000007bffffffffffffffffffffffffffffffffffffffffffffffffffffffff1916827bffffffffffffffffffffffffffffffffffffffffffffffffffffffff19161480610344575061034382610846565b5b9050919050565b60008054905090565b60008061035f6108c0565b905080600001600084815260200190815260200160002060010154915050919050565b61038b82610354565b610394816108e8565b61039e83836108fc565b50505050565b6103ac610951565b6103d67fa49807205ce4d355092ef5a8a18f56e8913cf4a201fbe287825b095693c2177582610772565b610415576040517f08c379a000000000000000000000000000000000000000000000000000000000815260040161040c906113b5565b60405180910390fd5b816000808282546104269190611404565b925050819055507f012c78e2b84325878b1bd9d250d772cfe5bda7722d795f45036fa5e1e6e303fc60005460405161045e919061113c565b60405180910390a161046e6109a8565b5050565b61047a6109c1565b73ffffffffffffffffffffffffffffffffffffffff168173ffffffffffffffffffffffffffffffffffffffff16146104de576040517f6697b23200000000000000000000000000000000000000000000000000000000815260040160405180910390fd5b6104e882826109c9565b505050565b7f7613a25ecc738585a232ad50a301178f12b3ba8887d13e138b523c4269c4768981565b7fa49807205ce4d355092ef5a8a18f56e8913cf4a201fbe287825b095693c2177581565b600061053f610a1e565b905060008160000160089054906101000a900460ff1615905060008260000160009054906101000a900467ffffffffffffffff1690506000808267ffffffffffffffff1614801561058d5750825b9050600060018367ffffffffffffffff161480156105c2575060003073ffffffffffffffffffffffffffffffffffffffff163b145b9050811580156105d0575080155b15610607576040517ff92ee8a900000000000000000000000000000000000000000000000000000000815260040160405180910390fd5b60018560000160006101000a81548167ffffffffffffffff021916908367ffffffffffffffff16021790555083156106575760018560000160086101000a81548160ff0219169083151502179055505b61065f610a46565b610667610a58565b6106746000801b336108fc565b5061069f7fa49807205ce4d355092ef5a8a18f56e8913cf4a201fbe287825b095693c21775336108fc565b506106ca7f7613a25ecc738585a232ad50a301178f12b3ba8887d13e138b523c4269c47689336108fc565b5060008081905550831561072e5760008560000160086101000a81548160ff0219169083151502179055507fc7f505b2f371ae2175ee4913f4499e1f2633a7b5936321eed1cdaeb6115181d260016040516107259190611491565b60405180910390a15b5050505050565b600080610740610a62565b905061076983826000016000878152602001908152602001600020610a8a90919063ffffffff16565b91505092915050565b60008061077d6108c0565b905080600001600085815260200190815260200160002060000160008473ffffffffffffffffffffffffffffffffffffffff1673ffffffffffffffffffffffffffffffffffffffff16815260200190815260200160002060009054906101000a900460ff1691505092915050565b6000801b81565b6000806107fd610a62565b905061081c816000016000858152602001908152602001600020610aa4565b915050919050565b61082d82610354565b610836816108e8565b61084083836109c9565b50505050565b60007f7965db0b000000000000000000000000000000000000000000000000000000007bffffffffffffffffffffffffffffffffffffffffffffffffffffffff1916827bffffffffffffffffffffffffffffffffffffffffffffffffffffffff191614806108b957506108b882610ab9565b5b9050919050565b60007f02dd7bc7dec4dceedda775e58dd541e08a116c6c53815c0bd028192f7b626800905090565b6108f9816108f46109c1565b610b23565b50565b600080610907610a62565b905060006109158585610b74565b905080156109465761094484836000016000888152602001908152602001600020610c7590919063ffffffff16565b505b809250505092915050565b600061095b610ca5565b9050600281600001540361099b576040517f3ee5aeb500000000000000000000000000000000000000000000000000000000815260040160405180910390fd5b6002816000018190555050565b60006109b2610ca5565b90506001816000018190555050565b600033905090565b6000806109d4610a62565b905060006109e28585610ccd565b90508015610a1357610a1184836000016000888152602001908152602001600020610dcf90919063ffffffff16565b505b809250505092915050565b60007ff0c57e16840df040f15088dc2f81fe391c3923bec73e23a9662efc9c229c6a00905090565b610a4e610dff565b610a56610e3f565b565b610a60610dff565b565b60007fc1f6fe24621ce81ec5827caf0253cadb74709b061630e6b55e82371705932000905090565b6000610a998360000183610e60565b60001c905092915050565b6000610ab282600001610e8b565b9050919050565b60007f01ffc9a7000000000000000000000000000000000000000000000000000000007bffffffffffffffffffffffffffffffffffffffffffffffffffffffff1916827bffffffffffffffffffffffffffffffffffffffffffffffffffffffff1916149050919050565b610b2d8282610772565b610b705780826040517fe2517d3f000000000000000000000000000000000000000000000000000000008152600401610b679291906114ac565b60405180910390fd5b5050565b600080610b7f6108c0565b9050610b8b8484610772565b610c6957600181600001600086815260200190815260200160002060000160008573ffffffffffffffffffffffffffffffffffffffff1673ffffffffffffffffffffffffffffffffffffffff16815260200190815260200160002060006101000a81548160ff021916908315150217905550610c056109c1565b73ffffffffffffffffffffffffffffffffffffffff168373ffffffffffffffffffffffffffffffffffffffff16857f2f8788117e7eff1d82e926ec794901d17c78024a50270940304540a733656f0d60405160405180910390a46001915050610c6f565b60009150505b92915050565b6000610c9d836000018373ffffffffffffffffffffffffffffffffffffffff1660001b610e9c565b905092915050565b60007f9b779b17422d0df92223018b32b4d1fa46e071723d6817e2486d003becc55f00905090565b600080610cd86108c0565b9050610ce48484610772565b15610dc357600081600001600086815260200190815260200160002060000160008573ffffffffffffffffffffffffffffffffffffffff1673ffffffffffffffffffffffffffffffffffffffff16815260200190815260200160002060006101000a81548160ff021916908315150217905550610d5f6109c1565b73ffffffffffffffffffffffffffffffffffffffff168373ffffffffffffffffffffffffffffffffffffffff16857ff6391f5c32d9c69d2a47ea670b442974b53935d1edc7fd64eb21e047a839171b60405160405180910390a46001915050610dc9565b60009150505b92915050565b6000610df7836000018373ffffffffffffffffffffffffffffffffffffffff1660001b610f0c565b905092915050565b610e07611020565b610e3d576040517fd7e6bcf800000000000000000000000000000000000000000000000000000000815260040160405180910390fd5b565b610e47610dff565b6000610e51610ca5565b90506001816000018190555050565b6000826000018281548110610e7857610e776114d5565b5b9060005260206000200154905092915050565b600081600001805490509050919050565b6000610ea88383611040565b610f01578260000182908060018154018082558091505060019003906000526020600020016000909190919091505582600001805490508360010160008481526020019081526020016000208190555060019050610f06565b600090505b92915050565b60008083600101600084815260200190815260200160002054905060008114611014576000600182610f3e9190611504565b9050600060018660000180549050610f569190611504565b9050808214610fc5576000866000018281548110610f7757610f766114d5565b5b9060005260206000200154905080876000018481548110610f9b57610f9a6114d5565b5b90600052602060002001819055508387600101600083815260200190815260200160002081905550505b85600001805480610fd957610fd8611538565b5b60019003818190600052602060002001600090559055856001016000868152602001908152602001600020600090556001935050505061101a565b60009150505b92915050565b600061102a610a1e565b60000160089054906101000a900460ff16905090565b600080836001016000848152602001908152602001600020541415905092915050565b600080fd5b60007fffffffff0000000000000000000000000000000000000000000000000000000082169050919050565b61109d81611068565b81146110a857600080fd5b50565b6000813590506110ba81611094565b92915050565b6000602082840312156110d6576110d5611063565b5b60006110e4848285016110ab565b91505092915050565b60008115159050919050565b611102816110ed565b82525050565b600060208201905061111d60008301846110f9565b92915050565b6000819050919050565b61113681611123565b82525050565b6000602082019050611151600083018461112d565b92915050565b6000819050919050565b61116a81611157565b811461117557600080fd5b50565b60008135905061118781611161565b92915050565b6000602082840312156111a3576111a2611063565b5b60006111b184828501611178565b91505092915050565b6111c381611157565b82525050565b60006020820190506111de60008301846111ba565b92915050565b600073ffffffffffffffffffffffffffffffffffffffff82169050919050565b600061120f826111e4565b9050919050565b61121f81611204565b811461122a57600080fd5b50565b60008135905061123c81611216565b92915050565b6000806040838503121561125957611258611063565b5b600061126785828601611178565b92505060206112788582860161122d565b9150509250929050565b61128b81611123565b811461129657600080fd5b50565b6000813590506112a881611282565b92915050565b600080604083850312156112c5576112c4611063565b5b60006112d385828601611299565b92505060206112e48582860161122d565b9150509250929050565b6000806040838503121561130557611304611063565b5b600061131385828601611178565b925050602061132485828601611299565b9150509250929050565b61133781611204565b82525050565b6000602082019050611352600083018461132e565b92915050565b600082825260208201905092915050565b7f43616c6c6572206973206e6f7420616e2061646d696e00000000000000000000600082015250565b600061139f601683611358565b91506113aa82611369565b602082019050919050565b600060208201905081810360008301526113ce81611392565b9050919050565b7f4e487b7100000000000000000000000000000000000000000000000000000000600052601160045260246000fd5b600061140f82611123565b915061141a83611123565b9250828201905080821115611432576114316113d5565b5b92915050565b6000819050919050565b600067ffffffffffffffff82169050919050565b6000819050919050565b600061147b61147661147184611438565b611456565b611442565b9050919050565b61148b81611460565b82525050565b60006020820190506114a66000830184611482565b92915050565b60006040820190506114c1600083018561132e565b6114ce60208301846111ba565b9392505050565b7f4e487b7100000000000000000000000000000000000000000000000000000000600052603260045260246000fd5b600061150f82611123565b915061151a83611123565b9250828203905081811115611532576115316113d5565b5b92915050565b7f4e487b7100000000000000000000000000000000000000000000000000000000600052603160045260246000fdfea26469706673582212202f3da50404d9d0106c8303baecee45c4e367db924c263f4b9077c805e0412ab464736f6c63430008140033",
  "linkReferences": {},
  "deployedLinkReferences": {}
}